{
  "contractName": "Authentication",
  "abi": [
    {
      "constant": false,
      "inputs": [],
      "name": "kill",
      "outputs": [],
      "payable": false,
      "stateMutability": "nonpayable",
      "type": "function"
    },
    {
      "constant": false,
      "inputs": [
        {
          "name": "name",
          "type": "bytes32"
        }
      ],
      "name": "signup",
      "outputs": [
        {
          "name": "",
          "type": "bytes32"
        }
      ],
      "payable": true,
      "stateMutability": "payable",
      "type": "function"
    },
    {
      "constant": false,
      "inputs": [
        {
          "name": "name",
          "type": "bytes32"
        }
      ],
      "name": "update",
      "outputs": [
        {
          "name": "",
          "type": "bytes32"
        }
      ],
      "payable": true,
      "stateMutability": "payable",
      "type": "function"
    },
    {
      "constant": true,
      "inputs": [],
      "name": "owner",
      "outputs": [
        {
          "name": "",
          "type": "address"
        }
      ],
      "payable": false,
      "stateMutability": "view",
      "type": "function"
    },
    {
      "constant": true,
      "inputs": [],
      "name": "login",
      "outputs": [
        {
          "name": "",
          "type": "bytes32"
        }
      ],
      "payable": false,
      "stateMutability": "view",
      "type": "function"
    },
    {
      "constant": false,
      "inputs": [
        {
          "name": "newOwner",
          "type": "address"
        }
      ],
      "name": "transferOwnership",
      "outputs": [],
      "payable": false,
      "stateMutability": "nonpayable",
      "type": "function"
    }
  ],
  "bytecode": "0x606060405260008054600160a060020a033316600160a060020a03199091161790556102ca806100306000396000f300606060405236156100755763ffffffff7c010000000000000000000000000000000000000000000000000000000060003504166341c0e1b5811461007a5780635c1397de1461008f5780638b147245146100ac5780638da5cb5b146100b7578063b34e97e8146100e6578063f2fde38b146100f9575b600080fd5b341561008557600080fd5b61008d610118565b005b61009a60043561013f565b60405190815260200160405180910390f35b61009a6004356101ae565b34156100c257600080fd5b6100ca6101fc565b604051600160a060020a03909116815260200160405180910390f35b34156100f157600080fd5b61009a61020b565b341561010457600080fd5b61008d600160a060020a036004351661024c565b60005433600160a060020a039081169116141561013d57600054600160a060020a0316ff5b565b600081151561014d57600080fd5b600160a060020a033316600090815260016020526040902054151561018e5750600160a060020a0333166000908152600160205260409020819055806101a9565b50600160a060020a0333166000908152600160205260409020545b919050565b60008115156101bc57600080fd5b600160a060020a033316600090815260016020526040902054156100755750600160a060020a0333166000908152600160205260409020819055806101a9565b600054600160a060020a031681565b600160a060020a033316600090815260016020526040812054151561022f57600080fd5b50600160a060020a03331660009081526001602052604090205490565b60005433600160a060020a039081169116141561029b57600160a060020a0381161561029b576000805473ffffffffffffffffffffffffffffffffffffffff1916600160a060020a0383161790555b505600a165627a7a72305820f499901c049fbd4a945594f08b6527cd64243e61d75805f5fccbc12403602e380029",
  "source": "pragma solidity ^0.4.2;\n\n\nimport './zeppelin/lifecycle/Killable.sol';\n\n\ncontract Authentication is Killable {\n    struct User {\n        bytes32 name;\n    }\n\n    mapping (address => User) private users;\n\n    uint private id; // Stores user id temporarily\n\n    function login() constant returns (bytes32) {\n        // Check if user exists.\n        // If yes, return user.\n        // If no, throw.\n\n        if (users[msg.sender].name == 0x0)\n        {\n            throw;\n        }\n\n        return (users[msg.sender].name);\n    }\n\n    function signup(bytes32 name) payable returns (bytes32) {\n        // Check if user exists.\n        // If yes, return user name.\n        // If no, check if name was sent.\n        // If yes, create and return user.\n        // If no, throw.\n\n        if (name == 0x0)\n        {\n            throw;\n        }\n\n        if (users[msg.sender].name == 0x0)\n        {\n            users[msg.sender].name = name;\n\n            return (users[msg.sender].name);\n        }\n\n        return (users[msg.sender].name);\n    }\n\n    function update(bytes32 name) payable returns (bytes32) {\n        // Update user name.\n\n        if (name == 0x0)\n        {\n            throw;\n        }\n\n        if (users[msg.sender].name != 0x0)\n        {\n            users[msg.sender].name = name;\n\n            return (users[msg.sender].name);\n        }\n\n        throw;\n    }\n}\n",
  "sourcePath": "/Users/tbrillard/Projects/typescript-truffle/contracts/Authentication.sol",
  "schemaVersion": "1.0.0",
  "updatedAt": "2017-10-11T09:56:48.940Z"
}