{
  "contractName": "Killable",
  "abi": [
    {
      "constant": false,
      "inputs": [],
      "name": "kill",
      "outputs": [],
      "payable": false,
      "stateMutability": "nonpayable",
      "type": "function"
    },
    {
      "constant": true,
      "inputs": [],
      "name": "owner",
      "outputs": [
        {
          "name": "",
          "type": "address"
        }
      ],
      "payable": false,
      "stateMutability": "view",
      "type": "function"
    },
    {
      "constant": false,
      "inputs": [
        {
          "name": "newOwner",
          "type": "address"
        }
      ],
      "name": "transferOwnership",
      "outputs": [],
      "payable": false,
      "stateMutability": "nonpayable",
      "type": "function"
    }
  ],
  "bytecode": "0x606060405260008054600160a060020a033316600160a060020a0319909116179055610169806100306000396000f300606060405263ffffffff7c010000000000000000000000000000000000000000000000000000000060003504166341c0e1b581146100525780638da5cb5b14610067578063f2fde38b1461009657600080fd5b341561005d57600080fd5b6100656100b5565b005b341561007257600080fd5b61007a6100dc565b604051600160a060020a03909116815260200160405180910390f35b34156100a157600080fd5b610065600160a060020a03600435166100eb565b60005433600160a060020a03908116911614156100da57600054600160a060020a0316ff5b565b600054600160a060020a031681565b60005433600160a060020a039081169116141561013a57600160a060020a0381161561013a576000805473ffffffffffffffffffffffffffffffffffffffff1916600160a060020a0383161790555b505600a165627a7a723058200878703c344bdd6890b8135cdcdbf99b917c2661fc77cf9453ca21093f4a7d8a0029",
  "source": "pragma solidity ^0.4.4;\n\n\nimport \"./../ownership/Ownable.sol\";\n\n\n/*\n * Killable\n * Base contract that can be killed by owner. All funds in contract will be sent to the owner.\n */\ncontract Killable is Ownable {\n  function kill() onlyOwner {\n    selfdestruct(owner);\n  }\n}\n",
  "sourcePath": "/Users/tbrillard/Projects/typescript-truffle/contracts/zeppelin/lifecycle/Killable.sol",
  "schemaVersion": "1.0.0",
  "updatedAt": "2017-10-18T09:34:10.432Z"
}