{
  "contractName": "mortal",
  "abi": [
    {
      "constant": false,
      "inputs": [],
      "name": "kill",
      "outputs": [],
      "payable": false,
      "stateMutability": "nonpayable",
      "type": "function"
    },
    {
      "inputs": [],
      "payable": false,
      "stateMutability": "nonpayable",
      "type": "constructor"
    }
  ],
  "bytecode": "0x6060604052341561000f57600080fd5b60008054600160a060020a033316600160a060020a031990911617905560b98061003a6000396000f300606060405263ffffffff7c010000000000000000000000000000000000000000000000000000000060003504166341c0e1b58114603b57600080fd5b3415604557600080fd5b604b604d565b005b6000543373ffffffffffffffffffffffffffffffffffffffff90811691161415608b5760005473ffffffffffffffffffffffffffffffffffffffff16ff5b5600a165627a7a723058208cad927f60908ae7899f81c83e1124253ad07e7438c2bec963578cb9b638263d0029",
  "source": "pragma solidity ^0.4.17;\n\ncontract mortal {\n    /* Define variable owner of the type address */\n    address owner;\n\n    /* This function is executed at initialization and sets the owner of the contract */\n    function mortal() public { owner = msg.sender; }\n\n    /* Function to recover the funds on the contract */\n    function kill() public { if (msg.sender == owner) selfdestruct(owner); }\n}\n\ncontract greeter is mortal {\n    /* Define variable greeting of the type string */\n    string greeting;\n\n    /* This runs when the contract is executed */\n    function greeter(string _greeting) public {\n        greeting = _greeting;\n    }\n\n    /* Main function */\n    function greet() constant public returns (string)  {\n        return greeting;\n    }\n}\n\ncontract Enchere is mortal {\n\n    struct data {\n    int256 amount;\n    string message;\n    }\n\n    mapping( address => data ) participants;\n\n    function modifyAnyBet(address _user,int64 _test, string _message)\n    payable\n    public {\n        require( msg.sender == owner);\n        participants[_user] = data(_test, _message);\n    }\n\n    function participate(int64 _test, string _message)\n    payable\n    public {\n        participants[msg.sender] = data(_test, _message);\n    }\n\n    function testPureFunction()\n    private\n    pure\n    returns( string ) {\n        return 'lol';\n    }\n\n    function getParticipant(address user)\n    view\n    public\n    returns ( int256, string ){\n        return (participants[user].amount, testPureFunction() );\n    }\n\n\n}\n\n\n",
  "sourcePath": "/Users/tbrillard/Projects/typescript-truffle/contracts/Enchere.sol",
  "schemaVersion": "1.0.0",
  "updatedAt": "2017-10-18T09:10:37.371Z"
}