{
  "contractName": "Vote",
  "abi": [
    {
      "constant": false,
      "inputs": [
        {
          "name": "vote",
          "type": "bool"
        }
      ],
      "name": "participate",
      "outputs": [],
      "payable": true,
      "stateMutability": "payable",
      "type": "function"
    },
    {
      "constant": false,
      "inputs": [],
      "name": "closeVote",
      "outputs": [],
      "payable": true,
      "stateMutability": "payable",
      "type": "function"
    },
    {
      "constant": false,
      "inputs": [],
      "name": "kill",
      "outputs": [],
      "payable": false,
      "stateMutability": "nonpayable",
      "type": "function"
    },
    {
      "constant": true,
      "inputs": [
        {
          "name": "_voter",
          "type": "address"
        }
      ],
      "name": "getVote",
      "outputs": [
        {
          "name": "",
          "type": "bool"
        }
      ],
      "payable": false,
      "stateMutability": "view",
      "type": "function"
    },
    {
      "constant": true,
      "inputs": [],
      "name": "owner",
      "outputs": [
        {
          "name": "",
          "type": "address"
        }
      ],
      "payable": false,
      "stateMutability": "view",
      "type": "function"
    },
    {
      "constant": true,
      "inputs": [],
      "name": "currentResult",
      "outputs": [
        {
          "name": "",
          "type": "bool"
        }
      ],
      "payable": false,
      "stateMutability": "view",
      "type": "function"
    },
    {
      "constant": false,
      "inputs": [
        {
          "name": "newOwner",
          "type": "address"
        }
      ],
      "name": "transferOwnership",
      "outputs": [],
      "payable": false,
      "stateMutability": "nonpayable",
      "type": "function"
    },
    {
      "inputs": [],
      "payable": false,
      "stateMutability": "nonpayable",
      "type": "constructor"
    },
    {
      "anonymous": false,
      "inputs": [
        {
          "indexed": false,
          "name": "voter",
          "type": "address"
        },
        {
          "indexed": false,
          "name": "vote",
          "type": "bool"
        },
        {
          "indexed": false,
          "name": "currentResult",
          "type": "bool"
        }
      ],
      "name": "Voted",
      "type": "event"
    },
    {
      "anonymous": false,
      "inputs": [
        {
          "indexed": false,
          "name": "currentResult",
          "type": "bool"
        }
      ],
      "name": "VoteClose",
      "type": "event"
    }
  ],
  "bytecode": "0x6060604052341561000f57600080fd5b60008054600160a060020a033316600160a060020a03199091161781556003556004805460ff19169055610404806100486000396000f300606060405236156100805763ffffffff7c01000000000000000000000000000000000000000000000000000000006000350416630f147c378114610085578063329d33461461009457806341c0e1b51461009c5780638d337b81146100af5780638da5cb5b146100e2578063c6c4676c14610111578063f2fde38b14610124575b600080fd5b6100926004351515610143565b005b61009261028e565b34156100a757600080fd5b6100926102f4565b34156100ba57600080fd5b6100ce600160a060020a036004351661031d565b604051901515815260200160405180910390f35b34156100ed57600080fd5b6100f561033b565b604051600160a060020a03909116815260200160405180910390f35b341561011c57600080fd5b6100ce61034a565b341561012f57600080fd5b610092600160a060020a0360043516610382565b600160a060020a03331660009081526001602052604090205460ff161561016957600080fd5b60045460ff161561017957600080fd5b33600160a060020a03166000908152600160208190526040909120805460ff191683151590811790915514156101ed5760038054700100000000000000000000000000000000808204600f90810b600101900b6fffffffffffffffffffffffffffffffff9081169091029116179055610231565b600380546fffffffffffffffffffffffffffffffff80821670010000000000000000000000000000000092839004600f90810b60001901900b919091169091021790555b7f3dfd7809ab9d7fa429069bc25e3408257cb102b4630fc175ec3cc45c68e2eccf338261025c61034a565b604051600160a060020a039093168352901515602083015215156040808301919091526060909101905180910390a150565b60005433600160a060020a039081169116146102a957600080fd5b6004805460ff191660011790557f376f3c36f66b7a87f2b0c6a26447756fb85ce8e3bc279fb8489a6ccb229a88ec6102df61034a565b604051901515815260200160405180910390a1565b60005433600160a060020a0390811691161461030f57600080fd5b600054600160a060020a0316ff5b600160a060020a031660009081526001602052604090205460ff1690565b600054600160a060020a031681565b6003546000907001000000000000000000000000000000009004600f90810b900b8190131561037b5750600161037f565b5060005b90565b60005433600160a060020a0390811691161461039d57600080fd5b600160a060020a038116156103d5576000805473ffffffffffffffffffffffffffffffffffffffff1916600160a060020a0383161790555b505600a165627a7a72305820e6223350ca93a32a0b7058cc31933557c2a23449a6b221aaead90c595ab777510029",
  "source": "pragma solidity ^0.4.17;\n\nimport './zeppelin/lifecycle/Killable.sol';\n\n\ncontract Vote is Killable {\n\n    struct sujet {\n    mapping( address => bool ) participants;\n    string titre;\n    int128 nbVote;\n    int128 currentResult;\n    bool isClosed;\n    }\n\n    sujet currentVote;\n\n    /* fired when user has voted */\n    event Voted (address voter, bool vote, bool currentResult );\n\n    /* fired when owner end the vote */\n    event VoteClose ( bool currentResult );\n\n    modifier onlyOwner {\n        require( msg.sender == owner );\n        _;\n    }\n\n    modifier hasNotVoted {\n        require( !currentVote.participants[msg.sender] );\n        _;\n    }\n\n    modifier isNotClosed {\n        require( !currentVote.isClosed );\n        _;\n    }\n\n\n    function Vote() public {\n        currentVote.nbVote = 0;\n        currentVote.currentResult = 0;\n        currentVote.isClosed = false;\n    }\n\n    function closeVote()\n    public\n    onlyOwner\n    payable {\n        currentVote.isClosed = true;\n        VoteClose( currentResult() );\n    }\n\n    function participate(bool vote)\n    payable\n    hasNotVoted\n    isNotClosed\n    public {\n        currentVote.participants[msg.sender] = vote;\n        if( vote == true ){\n            currentVote.currentResult++;\n        } else {\n            currentVote.currentResult--;\n        }\n        Voted(msg.sender, vote, currentResult() );\n    }\n\n    function currentResult() public view returns ( bool ) {\n        if( currentVote.currentResult > 0 ) return true;\n        return false;\n    }\n\n    function getVote(address _voter)\n    view\n    public\n    returns ( bool ){\n        return (currentVote.participants[_voter] );\n    }\n\n\n}",
  "sourcePath": "/Users/tbrillard/Projects/typescript-truffle/contracts/Vote.sol",
  "schemaVersion": "1.0.0",
  "updatedAt": "2017-10-18T09:34:10.441Z"
}